{
  "contractName": "CoffeeTraceability",
  "abi": [
    {
      "inputs": [],
      "stateMutability": "nonpayable",
      "type": "constructor"
    },
    {
      "anonymous": false,
      "inputs": [
        {
          "indexed": false,
          "internalType": "uint256",
          "name": "coffeeId",
          "type": "uint256"
        }
      ],
      "name": "CoffeeTraceabilityStarted",
      "type": "event"
    },
    {
      "anonymous": false,
      "inputs": [
        {
          "indexed": false,
          "internalType": "uint256",
          "name": "coffeeId",
          "type": "uint256"
        }
      ],
      "name": "CoffeeTraceabilityUpdate",
      "type": "event"
    },
    {
      "inputs": [
        {
          "internalType": "uint256",
          "name": "",
          "type": "uint256"
        }
      ],
      "name": "WorkPlaces",
      "outputs": [
        {
          "internalType": "string",
          "name": "",
          "type": "string"
        }
      ],
      "stateMutability": "view",
      "type": "function",
      "constant": true
    },
    {
      "inputs": [
        {
          "internalType": "uint256",
          "name": "",
          "type": "uint256"
        }
      ],
      "name": "coffeeShopRoles",
      "outputs": [
        {
          "internalType": "string",
          "name": "",
          "type": "string"
        }
      ],
      "stateMutability": "view",
      "type": "function",
      "constant": true
    },
    {
      "inputs": [
        {
          "internalType": "uint256",
          "name": "",
          "type": "uint256"
        }
      ],
      "name": "coffeeSpecies",
      "outputs": [
        {
          "internalType": "string",
          "name": "",
          "type": "string"
        }
      ],
      "stateMutability": "view",
      "type": "function",
      "constant": true
    },
    {
      "inputs": [
        {
          "internalType": "uint256",
          "name": "",
          "type": "uint256"
        },
        {
          "internalType": "uint256",
          "name": "",
          "type": "uint256"
        }
      ],
      "name": "coffeeTraceabilities",
      "outputs": [
        {
          "internalType": "string",
          "name": "farmName",
          "type": "string"
        },
        {
          "internalType": "string",
          "name": "harvestingAreaName",
          "type": "string"
        },
        {
          "internalType": "string",
          "name": "workPlace",
          "type": "string"
        },
        {
          "internalType": "string",
          "name": "role",
          "type": "string"
        },
        {
          "internalType": "string",
          "name": "dateStamp",
          "type": "string"
        },
        {
          "internalType": "uint256",
          "name": "coffeeSpecie",
          "type": "uint256"
        },
        {
          "internalType": "string",
          "name": "trackState",
          "type": "string"
        }
      ],
      "stateMutability": "view",
      "type": "function",
      "constant": true
    },
    {
      "inputs": [
        {
          "internalType": "address",
          "name": "",
          "type": "address"
        }
      ],
      "name": "employee",
      "outputs": [
        {
          "internalType": "address",
          "name": "id",
          "type": "address"
        },
        {
          "internalType": "string",
          "name": "workPlace",
          "type": "string"
        },
        {
          "internalType": "string",
          "name": "role",
          "type": "string"
        }
      ],
      "stateMutability": "view",
      "type": "function",
      "constant": true
    },
    {
      "inputs": [
        {
          "internalType": "uint256",
          "name": "",
          "type": "uint256"
        }
      ],
      "name": "farmRoles",
      "outputs": [
        {
          "internalType": "string",
          "name": "",
          "type": "string"
        }
      ],
      "stateMutability": "view",
      "type": "function",
      "constant": true
    },
    {
      "inputs": [
        {
          "internalType": "uint256",
          "name": "",
          "type": "uint256"
        }
      ],
      "name": "roastingPlantRoles",
      "outputs": [
        {
          "internalType": "string",
          "name": "",
          "type": "string"
        }
      ],
      "stateMutability": "view",
      "type": "function",
      "constant": true
    },
    {
      "inputs": [
        {
          "internalType": "string",
          "name": "",
          "type": "string"
        },
        {
          "internalType": "uint256",
          "name": "",
          "type": "uint256"
        }
      ],
      "name": "workPlaceRole",
      "outputs": [
        {
          "internalType": "string",
          "name": "",
          "type": "string"
        }
      ],
      "stateMutability": "view",
      "type": "function",
      "constant": true
    },
    {
      "inputs": [
        {
          "internalType": "uint256",
          "name": "_workPlace",
          "type": "uint256"
        },
        {
          "internalType": "uint256",
          "name": "_role",
          "type": "uint256"
        },
        {
          "internalType": "address",
          "name": "employeeAddress",
          "type": "address"
        }
      ],
      "name": "register",
      "outputs": [],
      "stateMutability": "nonpayable",
      "type": "function"
    },
    {
      "inputs": [],
      "name": "getWorkPlace",
      "outputs": [
        {
          "internalType": "string",
          "name": "",
          "type": "string"
        }
      ],
      "stateMutability": "view",
      "type": "function",
      "constant": true
    },
    {
      "inputs": [],
      "name": "getRole",
      "outputs": [
        {
          "internalType": "string",
          "name": "",
          "type": "string"
        }
      ],
      "stateMutability": "view",
      "type": "function",
      "constant": true
    },
    {
      "inputs": [
        {
          "internalType": "uint256",
          "name": "_coffeeSpecie",
          "type": "uint256"
        }
      ],
      "name": "getCoffeeSpecie",
      "outputs": [
        {
          "internalType": "string",
          "name": "",
          "type": "string"
        }
      ],
      "stateMutability": "view",
      "type": "function",
      "constant": true
    },
    {
      "inputs": [
        {
          "internalType": "string",
          "name": "farmName",
          "type": "string"
        },
        {
          "internalType": "string",
          "name": "harvestingAreaName",
          "type": "string"
        },
        {
          "internalType": "string",
          "name": "dateStamp",
          "type": "string"
        },
        {
          "internalType": "uint256",
          "name": "coffeeSpecie",
          "type": "uint256"
        }
      ],
      "name": "startCoffeeTraceability",
      "outputs": [
        {
          "internalType": "uint256",
          "name": "traceId",
          "type": "uint256"
        }
      ],
      "stateMutability": "nonpayable",
      "type": "function"
    },
    {
      "inputs": [
        {
          "internalType": "uint256",
          "name": "coffeeId",
          "type": "uint256"
        },
        {
          "internalType": "string",
          "name": "dateStamp",
          "type": "string"
        },
        {
          "internalType": "string",
          "name": "previousTransaction",
          "type": "string"
        }
      ],
      "name": "updateCoffeeTraceability",
      "outputs": [
        {
          "internalType": "uint256",
          "name": "traceId",
          "type": "uint256"
        }
      ],
      "stateMutability": "nonpayable",
      "type": "function"
    },
    {
      "inputs": [
        {
          "internalType": "uint256",
          "name": "coffeeId",
          "type": "uint256"
        }
      ],
      "name": "getCoffeeTraceability",
      "outputs": [
        {
          "components": [
            {
              "internalType": "string",
              "name": "farmName",
              "type": "string"
            },
            {
              "internalType": "string",
              "name": "harvestingAreaName",
              "type": "string"
            },
            {
              "internalType": "string",
              "name": "workPlace",
              "type": "string"
            },
            {
              "internalType": "string",
              "name": "role",
              "type": "string"
            },
            {
              "internalType": "string",
              "name": "dateStamp",
              "type": "string"
            },
            {
              "internalType": "uint256",
              "name": "coffeeSpecie",
              "type": "uint256"
            },
            {
              "internalType": "string",
              "name": "trackState",
              "type": "string"
            }
          ],
          "internalType": "struct CoffeeTrace[]",
          "name": "",
          "type": "tuple[]"
        }
      ],
      "stateMutability": "view",
      "type": "function",
      "constant": true
    }
  ],
  "bytecode": "0x608060405260405180606001604052806040518060400160405280600481526020017f4661726d0000000000000000000000000000000000000000000000000000000081525081526020016040518060400160405280600e81526020017f526f617374696e6720506c616e7400000000000000000000000000000000000081525081526020016040518060400160405280600b81526020017f436f666665652053686f700000000000000000000000000000000000000000008152508152506003906003620000d09291906200052c565b5060405180606001604052806040518060400160405280600981526020017f486172766573746572000000000000000000000000000000000000000000000081525081526020016040518060400160405280600981526020017f50726f636573736f72000000000000000000000000000000000000000000000081525081526020016040518060400160405280600d81526020017f4661726d205061636b616765720000000000000000000000000000000000000081525081525060069060036200019d9291906200052c565b5060405180608001604052806040518060400160405280601081526020017f57617265686f757365204b65657065720000000000000000000000000000000081525081526020016040518060400160405280600781526020017f526f61737465720000000000000000000000000000000000000000000000000081525081526020016040518060400160405280600581526020017f437572657200000000000000000000000000000000000000000000000000000081525081526020016040518060400160405280601781526020017f526f617374696e6720506c616e74205061636b616765720000000000000000008152508152506009906004620002a592919062000586565b5060405180604001604052806040518060400160405280600c81526020017f53746f7265204b6565706572000000000000000000000000000000000000000081525081526020016040518060400160405280600781526020017f4261726973746100000000000000000000000000000000000000000000000000815250815250600d90600262000337929190620005e0565b5060405180608001604052806040518060400160405280600781526020017f417261626963610000000000000000000000000000000000000000000000000081525081526020016040518060400160405280600781526020017f526f62757374610000000000000000000000000000000000000000000000000081525081526020016040518060400160405280600881526020017f4c6962657269636100000000000000000000000000000000000000000000000081525081526020016040518060400160405280600781526020017f457863656c736100000000000000000000000000000000000000000000000000815250815250600f9060046200043f92919062000586565b5060016013553480156200045257600080fd5b50336000806101000a81548173ffffffffffffffffffffffffffffffffffffffff021916908373ffffffffffffffffffffffffffffffffffffffff16021790555060066002604051620004a59062000986565b9081526020016040518091039020906003620004c39291906200063a565b5060096002604051620004d690620009ed565b9081526020016040518091039020906004620004f4929190620006a3565b50600d6002604051620005079062000a54565b9081526020016040518091039020906002620005259291906200070c565b5062000acf565b826003810192821562000573579160200282015b82811115620005725782518290805190602001906200056192919062000775565b509160200191906001019062000540565b5b50905062000582919062000806565b5090565b8260048101928215620005cd579160200282015b82811115620005cc578251829080519060200190620005bb92919062000775565b50916020019190600101906200059a565b5b509050620005dc919062000806565b5090565b826002810192821562000627579160200282015b82811115620006265782518290805190602001906200061592919062000775565b5091602001919060010190620005f4565b5b50905062000636919062000806565b5090565b82805482825590600052602060002090810192821562000690579182015b828111156200068f578282908054620006719062000a9a565b6200067e9291906200082e565b509160010191906001019062000658565b5b5090506200069f919062000806565b5090565b828054828255906000526020600020908101928215620006f9579182015b82811115620006f8578282908054620006da9062000a9a565b620006e79291906200082e565b5091600101919060010190620006c1565b5b50905062000708919062000806565b5090565b82805482825590600052602060002090810192821562000762579182015b8281111562000761578282908054620007439062000a9a565b620007509291906200082e565b50916001019190600101906200072a565b5b50905062000771919062000806565b5090565b828054620007839062000a9a565b90600052602060002090601f016020900481019282620007a75760008555620007f3565b82601f10620007c257805160ff1916838001178555620007f3565b82800160010185558215620007f3579182015b82811115620007f2578251825591602001919060010190620007d5565b5b509050620008029190620008c6565b5090565b5b808211156200082a5760008181620008209190620008e5565b5060010162000807565b5090565b8280546200083c9062000a9a565b90600052602060002090601f016020900481019282620008605760008555620008b3565b82601f10620008735780548555620008b3565b82800160010185558215620008b357600052602060002091601f016020900482015b82811115620008b257825482559160010191906001019062000895565b5b509050620008c29190620008c6565b5090565b5b80821115620008e1576000816000905550600101620008c7565b5090565b508054620008f39062000a9a565b6000825580601f1062000907575062000928565b601f016020900490600052602060002090810190620009279190620008c6565b5b50565b600081905092915050565b7f4661726d00000000000000000000000000000000000000000000000000000000600082015250565b60006200096e6004836200092b565b91506200097b8262000936565b600482019050919050565b600062000993826200095f565b9150819050919050565b7f526f617374696e6720506c616e74000000000000000000000000000000000000600082015250565b6000620009d5600e836200092b565b9150620009e2826200099d565b600e82019050919050565b6000620009fa82620009c6565b9150819050919050565b7f436f666665652053686f70000000000000000000000000000000000000000000600082015250565b600062000a3c600b836200092b565b915062000a498262000a04565b600b82019050919050565b600062000a618262000a2d565b9150819050919050565b7f4e487b7100000000000000000000000000000000000000000000000000000000600052602260045260246000fd5b6000600282049050600182168062000ab357607f821691505b60208210810362000ac95762000ac862000a6b565b5b50919050565b6132d78062000adf6000396000f3fe608060405234801561001057600080fd5b50600436106100f55760003560e01c80633742da2811610097578063f147ae5211610066578063f147ae5214610300578063f1c6480d14610330578063f3fa12a91461034c578063fde081741461037c576100f5565b80633742da281461023a57806354b1caba1461026a5780636c79c26d1461029a578063a9733aed146102d0576100f5565b80631fa85491116100d35780631fa854911461017a5780632dac1b44146101aa57806332a4400b146101da5780633578c0701461020a576100f5565b806309d495fd146100fa5780630b42dc2d1461012c578063152f7f281461014a575b600080fd5b610114600480360381019061010f91906126d2565b61039a565b604051610123939291906127a7565b60405180910390f35b6101346104f4565b60405161014191906127ec565b60405180910390f35b610164600480360381019061015f9190612979565b610726565b6040516101719190612a43565b60405180910390f35b610194600480360381019061018f9190612a5e565b610c00565b6040516101a191906127ec565b60405180910390f35b6101c460048036038101906101bf9190612aba565b610ccf565b6040516101d191906127ec565b60405180910390f35b6101f460048036038101906101ef9190612aba565b610d72565b60405161020191906127ec565b60405180910390f35b610224600480360381019061021f9190612aba565b610e63565b60405161023191906127ec565b60405180910390f35b610254600480360381019061024f9190612aba565b610f06565b60405161026191906127ec565b60405180910390f35b610284600480360381019061027f9190612ae7565b610fa9565b6040516102919190612a43565b60405180910390f35b6102b460048036038101906102af9190612b72565b611719565b6040516102c79796959493929190612bb2565b60405180910390f35b6102ea60048036038101906102e59190612aba565b611aa8565b6040516102f791906127ec565b60405180910390f35b61031a60048036038101906103159190612aba565b611b4b565b60405161032791906127ec565b60405180910390f35b61034a60048036038101906103459190612c4b565b611bee565b005b61036660048036038101906103619190612aba565b611f2f565b6040516103739190612e78565b60405180910390f35b610384612317565b60405161039191906127ec565b60405180910390f35b60016020528060005260406000206000915090508060000160009054906101000a900473ffffffffffffffffffffffffffffffffffffffff16908060010180546103e390612ec9565b80601f016020809104026020016040519081016040528092919081815260200182805461040f90612ec9565b801561045c5780601f106104315761010080835404028352916020019161045c565b820191906000526020600020905b81548152906001019060200180831161043f57829003601f168201915b50505050509080600201805461047190612ec9565b80601f016020809104026020016040519081016040528092919081815260200182805461049d90612ec9565b80156104ea5780601f106104bf576101008083540402835291602001916104ea565b820191906000526020600020905b8154815290600101906020018083116104cd57829003601f168201915b5050505050905083565b606060006040518060400160405280600c81526020017f556e617574686f72697a6564000000000000000000000000000000000000000081525090503373ffffffffffffffffffffffffffffffffffffffff1660008054906101000a900473ffffffffffffffffffffffffffffffffffffffff1673ffffffffffffffffffffffffffffffffffffffff16036105bc576040518060400160405280600781526020017f4d616e616765720000000000000000000000000000000000000000000000000081525090505b3373ffffffffffffffffffffffffffffffffffffffff16600160003373ffffffffffffffffffffffffffffffffffffffff1673ffffffffffffffffffffffffffffffffffffffff16815260200190815260200160002060000160009054906101000a900473ffffffffffffffffffffffffffffffffffffffff1673ffffffffffffffffffffffffffffffffffffffff160361071f57600160003373ffffffffffffffffffffffffffffffffffffffff1673ffffffffffffffffffffffffffffffffffffffff168152602001908152602001600020600101805461069e90612ec9565b80601f01602080910402602001604051908101604052809291908181526020018280546106ca90612ec9565b80156107175780601f106106ec57610100808354040283529160200191610717565b820191906000526020600020905b8154815290600101906020018083116106fa57829003601f168201915b505050505090505b8091505090565b6000600160003373ffffffffffffffffffffffffffffffffffffffff1673ffffffffffffffffffffffffffffffffffffffff16815260200190815260200160002060000160009054906101000a900473ffffffffffffffffffffffffffffffffffffffff1673ffffffffffffffffffffffffffffffffffffffff163373ffffffffffffffffffffffffffffffffffffffff16146107f8576040517f08c379a00000000000000000000000000000000000000000000000000000000081526004016107ef90612f6c565b60405180910390fd5b60405160200161080790612fe3565b60405160208183030381529060405280519060200120600160003373ffffffffffffffffffffffffffffffffffffffff1673ffffffffffffffffffffffffffffffffffffffff16815260200190815260200160002060020160405160200161086f919061308c565b60405160208183030381529060405280519060200120146108c5576040517f08c379a00000000000000000000000000000000000000000000000000000000081526004016108bc90613115565b60405180910390fd5b6108cd612549565b858160000181905250848160200181905250838160800181905250600160003373ffffffffffffffffffffffffffffffffffffffff1673ffffffffffffffffffffffffffffffffffffffff168152602001908152602001600020600201805461093590612ec9565b80601f016020809104026020016040519081016040528092919081815260200182805461096190612ec9565b80156109ae5780601f10610983576101008083540402835291602001916109ae565b820191906000526020600020905b81548152906001019060200180831161099157829003601f168201915b50505050508160600181905250600160003373ffffffffffffffffffffffffffffffffffffffff1673ffffffffffffffffffffffffffffffffffffffff1681526020019081526020016000206001018054610a0890612ec9565b80601f0160208091040260200160405190810160405280929190818152602001828054610a3490612ec9565b8015610a815780601f10610a5657610100808354040283529160200191610a81565b820191906000526020600020905b815481529060010190602001808311610a6457829003601f168201915b50505050508160400181905250600183610a9b9190613164565b8160a00181815250506014600060135481526020019081526020016000208190806001815401808255809150506001900390600052602060002090600702016000909190919091506000820151816000019080519060200190610aff929190612586565b506020820151816001019080519060200190610b1c929190612586565b506040820151816002019080519060200190610b39929190612586565b506060820151816003019080519060200190610b56929190612586565b506080820151816004019080519060200190610b73929190612586565b5060a0820151816005015560c0820151816006019080519060200190610b9a929190612586565b5050506000601354905060136000815480929190610bb790613198565b91905055507f20d16f74228854086b536923069f433813c3465b42c8bcd7973d9b40d3147ac881604051610beb9190612a43565b60405180910390a18092505050949350505050565b6002828051602081018201805184825260208301602085012081835280955050505050508181548110610c3257600080fd5b90600052602060002001600091509150508054610c4e90612ec9565b80601f0160208091040260200160405190810160405280929190818152602001828054610c7a90612ec9565b8015610cc75780601f10610c9c57610100808354040283529160200191610cc7565b820191906000526020600020905b815481529060010190602001808311610caa57829003601f168201915b505050505081565b60038160038110610cdf57600080fd5b016000915090508054610cf190612ec9565b80601f0160208091040260200160405190810160405280929190818152602001828054610d1d90612ec9565b8015610d6a5780601f10610d3f57610100808354040283529160200191610d6a565b820191906000526020600020905b815481529060010190602001808311610d4d57829003601f168201915b505050505081565b606060006040518060400160405280600c81526020017f556e617574686f72697a656400000000000000000000000000000000000000008152509050600f600184610dbd9190613164565b60048110610dce57610dcd6131e0565b5b018054610dda90612ec9565b80601f0160208091040260200160405190810160405280929190818152602001828054610e0690612ec9565b8015610e535780601f10610e2857610100808354040283529160200191610e53565b820191906000526020600020905b815481529060010190602001808311610e3657829003601f168201915b5050505050905080915050919050565b60068160038110610e7357600080fd5b016000915090508054610e8590612ec9565b80601f0160208091040260200160405190810160405280929190818152602001828054610eb190612ec9565b8015610efe5780601f10610ed357610100808354040283529160200191610efe565b820191906000526020600020905b815481529060010190602001808311610ee157829003601f168201915b505050505081565b60098160048110610f1657600080fd5b016000915090508054610f2890612ec9565b80601f0160208091040260200160405190810160405280929190818152602001828054610f5490612ec9565b8015610fa15780601f10610f7657610100808354040283529160200191610fa1565b820191906000526020600020905b815481529060010190602001808311610f8457829003601f168201915b505050505081565b6000600160003373ffffffffffffffffffffffffffffffffffffffff1673ffffffffffffffffffffffffffffffffffffffff16815260200190815260200160002060000160009054906101000a900473ffffffffffffffffffffffffffffffffffffffff1673ffffffffffffffffffffffffffffffffffffffff163373ffffffffffffffffffffffffffffffffffffffff161461107b576040517f08c379a000000000000000000000000000000000000000000000000000000000815260040161107290612f6c565b60405180910390fd5b60006014600086815260200190815260200160002090506000816000815481106110a8576110a76131e0565b5b90600052602060002090600702016040518060e00160405290816000820180546110d190612ec9565b80601f01602080910402602001604051908101604052809291908181526020018280546110fd90612ec9565b801561114a5780601f1061111f5761010080835404028352916020019161114a565b820191906000526020600020905b81548152906001019060200180831161112d57829003601f168201915b5050505050815260200160018201805461116390612ec9565b80601f016020809104026020016040519081016040528092919081815260200182805461118f90612ec9565b80156111dc5780601f106111b1576101008083540402835291602001916111dc565b820191906000526020600020905b8154815290600101906020018083116111bf57829003601f168201915b505050505081526020016002820180546111f590612ec9565b80601f016020809104026020016040519081016040528092919081815260200182805461122190612ec9565b801561126e5780601f106112435761010080835404028352916020019161126e565b820191906000526020600020905b81548152906001019060200180831161125157829003601f168201915b5050505050815260200160038201805461128790612ec9565b80601f01602080910402602001604051908101604052809291908181526020018280546112b390612ec9565b80156113005780601f106112d557610100808354040283529160200191611300565b820191906000526020600020905b8154815290600101906020018083116112e357829003601f168201915b5050505050815260200160048201805461131990612ec9565b80601f016020809104026020016040519081016040528092919081815260200182805461134590612ec9565b80156113925780601f1061136757610100808354040283529160200191611392565b820191906000526020600020905b81548152906001019060200180831161137557829003601f168201915b50505050508152602001600582015481526020016006820180546113b590612ec9565b80601f01602080910402602001604051908101604052809291908181526020018280546113e190612ec9565b801561142e5780601f106114035761010080835404028352916020019161142e565b820191906000526020600020905b81548152906001019060200180831161141157829003601f168201915b5050505050815250509050848160800181905250600160003373ffffffffffffffffffffffffffffffffffffffff1673ffffffffffffffffffffffffffffffffffffffff168152602001908152602001600020600201805461148f90612ec9565b80601f01602080910402602001604051908101604052809291908181526020018280546114bb90612ec9565b80156115085780601f106114dd57610100808354040283529160200191611508565b820191906000526020600020905b8154815290600101906020018083116114eb57829003601f168201915b50505050508160600181905250600160003373ffffffffffffffffffffffffffffffffffffffff1673ffffffffffffffffffffffffffffffffffffffff168152602001908152602001600020600101805461156290612ec9565b80601f016020809104026020016040519081016040528092919081815260200182805461158e90612ec9565b80156115db5780601f106115b0576101008083540402835291602001916115db565b820191906000526020600020905b8154815290600101906020018083116115be57829003601f168201915b50505050508160400181905250838160c00181905250818190806001815401808255809150506001900390600052602060002090600702016000909190919091506000820151816000019080519060200190611638929190612586565b506020820151816001019080519060200190611655929190612586565b506040820151816002019080519060200190611672929190612586565b50606082015181600301908051906020019061168f929190612586565b5060808201518160040190805190602001906116ac929190612586565b5060a0820151816005015560c08201518160060190805190602001906116d3929190612586565b5050507fa41c83342187b7d1810ca5cda935cdd45a7d447e707aa2bd9654c5d43dc4e640866040516117059190612a43565b60405180910390a185925050509392505050565b6014602052816000526040600020818154811061173557600080fd5b90600052602060002090600702016000915091505080600001805461175990612ec9565b80601f016020809104026020016040519081016040528092919081815260200182805461178590612ec9565b80156117d25780601f106117a7576101008083540402835291602001916117d2565b820191906000526020600020905b8154815290600101906020018083116117b557829003601f168201915b5050505050908060010180546117e790612ec9565b80601f016020809104026020016040519081016040528092919081815260200182805461181390612ec9565b80156118605780601f1061183557610100808354040283529160200191611860565b820191906000526020600020905b81548152906001019060200180831161184357829003601f168201915b50505050509080600201805461187590612ec9565b80601f01602080910402602001604051908101604052809291908181526020018280546118a190612ec9565b80156118ee5780601f106118c3576101008083540402835291602001916118ee565b820191906000526020600020905b8154815290600101906020018083116118d157829003601f168201915b50505050509080600301805461190390612ec9565b80601f016020809104026020016040519081016040528092919081815260200182805461192f90612ec9565b801561197c5780601f106119515761010080835404028352916020019161197c565b820191906000526020600020905b81548152906001019060200180831161195f57829003601f168201915b50505050509080600401805461199190612ec9565b80601f01602080910402602001604051908101604052809291908181526020018280546119bd90612ec9565b8015611a0a5780601f106119df57610100808354040283529160200191611a0a565b820191906000526020600020905b8154815290600101906020018083116119ed57829003601f168201915b505050505090806005015490806006018054611a2590612ec9565b80601f0160208091040260200160405190810160405280929190818152602001828054611a5190612ec9565b8015611a9e5780601f10611a7357610100808354040283529160200191611a9e565b820191906000526020600020905b815481529060010190602001808311611a8157829003601f168201915b5050505050905087565b600d8160028110611ab857600080fd5b016000915090508054611aca90612ec9565b80601f0160208091040260200160405190810160405280929190818152602001828054611af690612ec9565b8015611b435780601f10611b1857610100808354040283529160200191611b43565b820191906000526020600020905b815481529060010190602001808311611b2657829003601f168201915b505050505081565b600f8160048110611b5b57600080fd5b016000915090508054611b6d90612ec9565b80601f0160208091040260200160405190810160405280929190818152602001828054611b9990612ec9565b8015611be65780601f10611bbb57610100808354040283529160200191611be6565b820191906000526020600020905b815481529060010190602001808311611bc957829003601f168201915b505050505081565b60008054906101000a900473ffffffffffffffffffffffffffffffffffffffff1673ffffffffffffffffffffffffffffffffffffffff163373ffffffffffffffffffffffffffffffffffffffff1614611c7c576040517f08c379a0000000000000000000000000000000000000000000000000000000008152600401611c7390613281565b60405180910390fd5b611c8461260c565b81816000019073ffffffffffffffffffffffffffffffffffffffff16908173ffffffffffffffffffffffffffffffffffffffff16815250506003600185611ccb9190613164565b60038110611cdc57611cdb6131e0565b5b018054611ce890612ec9565b80601f0160208091040260200160405190810160405280929190818152602001828054611d1490612ec9565b8015611d615780601f10611d3657610100808354040283529160200191611d61565b820191906000526020600020905b815481529060010190602001808311611d4457829003601f168201915b5050505050816020018190525060026003600186611d7f9190613164565b60038110611d9057611d8f6131e0565b5b01604051611d9e919061308c565b9081526020016040518091039020600184611db99190613164565b81548110611dca57611dc96131e0565b5b906000526020600020018054611ddf90612ec9565b80601f0160208091040260200160405190810160405280929190818152602001828054611e0b90612ec9565b8015611e585780601f10611e2d57610100808354040283529160200191611e58565b820191906000526020600020905b815481529060010190602001808311611e3b57829003601f168201915b5050505050816040018190525080600160008473ffffffffffffffffffffffffffffffffffffffff1673ffffffffffffffffffffffffffffffffffffffff16815260200190815260200160002060008201518160000160006101000a81548173ffffffffffffffffffffffffffffffffffffffff021916908373ffffffffffffffffffffffffffffffffffffffff1602179055506020820151816001019080519060200190611f08929190612586565b506040820151816002019080519060200190611f25929190612586565b5090505050505050565b606060146000838152602001908152602001600020805480602002602001604051908101604052809291908181526020016000905b8282101561230c57838290600052602060002090600702016040518060e0016040529081600082018054611f9790612ec9565b80601f0160208091040260200160405190810160405280929190818152602001828054611fc390612ec9565b80156120105780601f10611fe557610100808354040283529160200191612010565b820191906000526020600020905b815481529060010190602001808311611ff357829003601f168201915b5050505050815260200160018201805461202990612ec9565b80601f016020809104026020016040519081016040528092919081815260200182805461205590612ec9565b80156120a25780601f10612077576101008083540402835291602001916120a2565b820191906000526020600020905b81548152906001019060200180831161208557829003601f168201915b505050505081526020016002820180546120bb90612ec9565b80601f01602080910402602001604051908101604052809291908181526020018280546120e790612ec9565b80156121345780601f1061210957610100808354040283529160200191612134565b820191906000526020600020905b81548152906001019060200180831161211757829003601f168201915b5050505050815260200160038201805461214d90612ec9565b80601f016020809104026020016040519081016040528092919081815260200182805461217990612ec9565b80156121c65780601f1061219b576101008083540402835291602001916121c6565b820191906000526020600020905b8154815290600101906020018083116121a957829003601f168201915b505050505081526020016004820180546121df90612ec9565b80601f016020809104026020016040519081016040528092919081815260200182805461220b90612ec9565b80156122585780601f1061222d57610100808354040283529160200191612258565b820191906000526020600020905b81548152906001019060200180831161223b57829003601f168201915b505050505081526020016005820154815260200160068201805461227b90612ec9565b80601f01602080910402602001604051908101604052809291908181526020018280546122a790612ec9565b80156122f45780601f106122c9576101008083540402835291602001916122f4565b820191906000526020600020905b8154815290600101906020018083116122d757829003601f168201915b50505050508152505081526020019060010190611f64565b505050509050919050565b606060006040518060400160405280600c81526020017f556e617574686f72697a6564000000000000000000000000000000000000000081525090503373ffffffffffffffffffffffffffffffffffffffff1660008054906101000a900473ffffffffffffffffffffffffffffffffffffffff1673ffffffffffffffffffffffffffffffffffffffff16036123df576040518060400160405280600781526020017f4d616e616765720000000000000000000000000000000000000000000000000081525090505b3373ffffffffffffffffffffffffffffffffffffffff16600160003373ffffffffffffffffffffffffffffffffffffffff1673ffffffffffffffffffffffffffffffffffffffff16815260200190815260200160002060000160009054906101000a900473ffffffffffffffffffffffffffffffffffffffff1673ffffffffffffffffffffffffffffffffffffffff160361254257600160003373ffffffffffffffffffffffffffffffffffffffff1673ffffffffffffffffffffffffffffffffffffffff16815260200190815260200160002060020180546124c190612ec9565b80601f01602080910402602001604051908101604052809291908181526020018280546124ed90612ec9565b801561253a5780601f1061250f5761010080835404028352916020019161253a565b820191906000526020600020905b81548152906001019060200180831161251d57829003601f168201915b505050505090505b8091505090565b6040518060e00160405280606081526020016060815260200160608152602001606081526020016060815260200160008152602001606081525090565b82805461259290612ec9565b90600052602060002090601f0160209004810192826125b457600085556125fb565b82601f106125cd57805160ff19168380011785556125fb565b828001600101855582156125fb579182015b828111156125fa5782518255916020019190600101906125df565b5b5090506126089190612643565b5090565b6040518060600160405280600073ffffffffffffffffffffffffffffffffffffffff16815260200160608152602001606081525090565b5b8082111561265c576000816000905550600101612644565b5090565b6000604051905090565b600080fd5b600080fd5b600073ffffffffffffffffffffffffffffffffffffffff82169050919050565b600061269f82612674565b9050919050565b6126af81612694565b81146126ba57600080fd5b50565b6000813590506126cc816126a6565b92915050565b6000602082840312156126e8576126e761266a565b5b60006126f6848285016126bd565b91505092915050565b61270881612694565b82525050565b600081519050919050565b600082825260208201905092915050565b60005b8381101561274857808201518184015260208101905061272d565b83811115612757576000848401525b50505050565b6000601f19601f8301169050919050565b60006127798261270e565b6127838185612719565b935061279381856020860161272a565b61279c8161275d565b840191505092915050565b60006060820190506127bc60008301866126ff565b81810360208301526127ce818561276e565b905081810360408301526127e2818461276e565b9050949350505050565b60006020820190508181036000830152612806818461276e565b905092915050565b600080fd5b600080fd5b7f4e487b7100000000000000000000000000000000000000000000000000000000600052604160045260246000fd5b6128508261275d565b810181811067ffffffffffffffff8211171561286f5761286e612818565b5b80604052505050565b6000612882612660565b905061288e8282612847565b919050565b600067ffffffffffffffff8211156128ae576128ad612818565b5b6128b78261275d565b9050602081019050919050565b82818337600083830152505050565b60006128e66128e184612893565b612878565b90508281526020810184848401111561290257612901612813565b5b61290d8482856128c4565b509392505050565b600082601f83011261292a5761292961280e565b5b813561293a8482602086016128d3565b91505092915050565b6000819050919050565b61295681612943565b811461296157600080fd5b50565b6000813590506129738161294d565b92915050565b600080600080608085870312156129935761299261266a565b5b600085013567ffffffffffffffff8111156129b1576129b061266f565b5b6129bd87828801612915565b945050602085013567ffffffffffffffff8111156129de576129dd61266f565b5b6129ea87828801612915565b935050604085013567ffffffffffffffff811115612a0b57612a0a61266f565b5b612a1787828801612915565b9250506060612a2887828801612964565b91505092959194509250565b612a3d81612943565b82525050565b6000602082019050612a586000830184612a34565b92915050565b60008060408385031215612a7557612a7461266a565b5b600083013567ffffffffffffffff811115612a9357612a9261266f565b5b612a9f85828601612915565b9250506020612ab085828601612964565b9150509250929050565b600060208284031215612ad057612acf61266a565b5b6000612ade84828501612964565b91505092915050565b600080600060608486031215612b0057612aff61266a565b5b6000612b0e86828701612964565b935050602084013567ffffffffffffffff811115612b2f57612b2e61266f565b5b612b3b86828701612915565b925050604084013567ffffffffffffffff811115612b5c57612b5b61266f565b5b612b6886828701612915565b9150509250925092565b60008060408385031215612b8957612b8861266a565b5b6000612b9785828601612964565b9250506020612ba885828601612964565b9150509250929050565b600060e0820190508181036000830152612bcc818a61276e565b90508181036020830152612be0818961276e565b90508181036040830152612bf4818861276e565b90508181036060830152612c08818761276e565b90508181036080830152612c1c818661276e565b9050612c2b60a0830185612a34565b81810360c0830152612c3d818461276e565b905098975050505050505050565b600080600060608486031215612c6457612c6361266a565b5b6000612c7286828701612964565b9350506020612c8386828701612964565b9250506040612c94868287016126bd565b9150509250925092565b600081519050919050565b600082825260208201905092915050565b6000819050602082019050919050565b600082825260208201905092915050565b6000612ce68261270e565b612cf08185612cca565b9350612d0081856020860161272a565b612d098161275d565b840191505092915050565b612d1d81612943565b82525050565b600060e0830160008301518482036000860152612d408282612cdb565b91505060208301518482036020860152612d5a8282612cdb565b91505060408301518482036040860152612d748282612cdb565b91505060608301518482036060860152612d8e8282612cdb565b91505060808301518482036080860152612da88282612cdb565b91505060a0830151612dbd60a0860182612d14565b5060c083015184820360c0860152612dd58282612cdb565b9150508091505092915050565b6000612dee8383612d23565b905092915050565b6000602082019050919050565b6000612e0e82612c9e565b612e188185612ca9565b935083602082028501612e2a85612cba565b8060005b85811015612e665784840389528151612e478582612de2565b9450612e5283612df6565b925060208a01995050600181019050612e2e565b50829750879550505050505092915050565b60006020820190508181036000830152612e928184612e03565b905092915050565b7f4e487b7100000000000000000000000000000000000000000000000000000000600052602260045260246000fd5b60006002820490506001821680612ee157607f821691505b602082108103612ef457612ef3612e9a565b5b50919050565b7f556e617574686572697a65642c204f6e6c7920456d706c6f7965652063616e2060008201527f646f210000000000000000000000000000000000000000000000000000000000602082015250565b6000612f56602383612719565b9150612f6182612efa565b604082019050919050565b60006020820190508181036000830152612f8581612f49565b9050919050565b600081905092915050565b7f4861727665737465720000000000000000000000000000000000000000000000600082015250565b6000612fcd600983612f8c565b9150612fd882612f97565b600982019050919050565b6000612fee82612fc0565b9150819050919050565b60008190508160005260206000209050919050565b6000815461301a81612ec9565b6130248186612f8c565b9450600182166000811461303f576001811461305057613083565b60ff19831686528186019350613083565b61305985612ff8565b60005b8381101561307b5781548189015260018201915060208101905061305c565b838801955050505b50505092915050565b6000613098828461300d565b915081905092915050565b7f556e617574686572697a65642c204f6e6c7920526f6c6520486172766573746560008201527f722063616e20646f210000000000000000000000000000000000000000000000602082015250565b60006130ff602983612719565b915061310a826130a3565b604082019050919050565b6000602082019050818103600083015261312e816130f2565b9050919050565b7f4e487b7100000000000000000000000000000000000000000000000000000000600052601160045260246000fd5b600061316f82612943565b915061317a83612943565b92508282101561318d5761318c613135565b5b828203905092915050565b60006131a382612943565b91507fffffffffffffffffffffffffffffffffffffffffffffffffffffffffffffffff82036131d5576131d4613135565b5b600182019050919050565b7f4e487b7100000000000000000000000000000000000000000000000000000000600052603260045260246000fd5b7f556e617574686572697a65642c204f6e6c79204d616e616765722063616e206460008201527f6f21000000000000000000000000000000000000000000000000000000000000602082015250565b600061326b602283612719565b91506132768261320f565b604082019050919050565b6000602082019050818103600083015261329a8161325e565b905091905056fea2646970667358221220fb25890c2984cfc0322e31aaa7fc8a6ab409084d4d523fdc25d1f2e5e8802cdb64736f6c634300080d0033",
  "immutableReferences": {},
  "source": "// SPDX-License-Identifier: MIT\r\npragma solidity ^0.8.0;\r\n\r\nstruct Position {\r\n    address id;\r\n    string workPlace;\r\n    string role;\r\n}\r\n\r\nstruct CoffeeTrace {\r\n    string farmName;\r\n    string harvestingAreaName;\r\n    string workPlace;\r\n    string role;\r\n    string dateStamp;\r\n    uint256 coffeeSpecie;\r\n    string trackState;\r\n}\r\n\r\ncontract CoffeeTraceability {\r\n    address private _manager;\r\n    mapping(address => Position) public employee;\r\n    mapping(string => string[]) public workPlaceRole;\r\n    string[3] public WorkPlaces = [\"Farm\", \"Roasting Plant\", \"Coffee Shop\"];\r\n    string[3] public farmRoles = [\"Harvester\", \"Processor\", \"Farm Packager\"];\r\n    string[4] public roastingPlantRoles = [\r\n        \"Warehouse Keeper\",\r\n        \"Roaster\",\r\n        \"Curer\",\r\n        \"Roasting Plant Packager\"\r\n    ];\r\n    string[2] public coffeeShopRoles = [\"Store Keeper\", \"Barista\"];\r\n    string[4] public coffeeSpecies = [\r\n        \"Arabica\",\r\n        \"Robusta\",\r\n        \"Liberica\",\r\n        \"Excelsa\"\r\n    ];\r\n    uint256 coffeeIdIndex = 1;\r\n    mapping(uint256 => CoffeeTrace[]) public coffeeTraceabilities;\r\n\r\n    constructor() {\r\n        _manager = msg.sender;\r\n        workPlaceRole[\"Farm\"] = farmRoles;\r\n        workPlaceRole[\"Roasting Plant\"] = roastingPlantRoles;\r\n        workPlaceRole[\"Coffee Shop\"] = coffeeShopRoles;\r\n    }\r\n\r\n    modifier isManager() {\r\n        require(msg.sender == _manager, \"Unautherized, Only Manager can do!\");\r\n        _;\r\n    }\r\n\r\n    modifier isEmployee() {\r\n        require(\r\n            msg.sender == employee[msg.sender].id,\r\n            \"Unautherized, Only Employee can do!\"\r\n        );\r\n        _;\r\n    }\r\n\r\n    function register(\r\n        uint256 _workPlace,\r\n        uint256 _role,\r\n        address employeeAddress\r\n    ) public isManager {\r\n        Position memory _position;\r\n        _position.id = employeeAddress;\r\n        _position.workPlace = WorkPlaces[_workPlace - 1];\r\n        _position.role = workPlaceRole[WorkPlaces[_workPlace - 1]][_role - 1];\r\n        employee[employeeAddress] = _position;\r\n    }\r\n\r\n    function getWorkPlace() public view returns (string memory) {\r\n        string memory workPlace = \"Unauthorized\";\r\n        if (_manager == msg.sender) workPlace = \"Manager\";\r\n        if (employee[msg.sender].id == msg.sender)\r\n            workPlace = employee[msg.sender].workPlace;\r\n        return workPlace;\r\n    }\r\n\r\n    function getRole() public view returns (string memory) {\r\n        string memory role = \"Unauthorized\";\r\n        if (_manager == msg.sender) role = \"Manager\";\r\n        if (employee[msg.sender].id == msg.sender)\r\n            role = employee[msg.sender].role;\r\n        return role;\r\n    }\r\n\r\n    function getCoffeeSpecie(\r\n        uint256 _coffeeSpecie\r\n    ) public view returns (string memory) {\r\n        string memory coffeeSpecie = \"Unauthorized\";\r\n        coffeeSpecie = coffeeSpecies[_coffeeSpecie - 1];\r\n        return coffeeSpecie;\r\n    }\r\n\r\n    event CoffeeTraceabilityStarted(uint256 coffeeId);\r\n\r\n    function startCoffeeTraceability(\r\n        string memory farmName,\r\n        string memory harvestingAreaName,\r\n        string memory dateStamp,\r\n        uint256 coffeeSpecie\r\n    ) public isEmployee returns (uint256 traceId) {\r\n        require(\r\n            keccak256(abi.encodePacked(employee[msg.sender].role)) ==\r\n                keccak256(abi.encodePacked(\"Harvester\")),\r\n            \"Unautherized, Only Role Harvester can do!\"\r\n        );\r\n        CoffeeTrace memory coffeeTrace;\r\n        coffeeTrace.farmName = farmName;\r\n        coffeeTrace.harvestingAreaName = harvestingAreaName;\r\n        coffeeTrace.dateStamp = dateStamp;\r\n        coffeeTrace.role = employee[msg.sender].role;\r\n        coffeeTrace.workPlace = employee[msg.sender].workPlace;\r\n        coffeeTrace.coffeeSpecie = coffeeSpecie - 1;\r\n        coffeeTraceabilities[coffeeIdIndex].push(coffeeTrace);\r\n        uint256 coffeeId = coffeeIdIndex;\r\n        coffeeIdIndex++;\r\n        emit CoffeeTraceabilityStarted(coffeeId);\r\n        return coffeeId;\r\n    }\r\n\r\n    event CoffeeTraceabilityUpdate(uint256 coffeeId);\r\n\r\n    function updateCoffeeTraceability(\r\n        uint256 coffeeId,\r\n        string memory dateStamp,\r\n        string memory previousTransaction\r\n    ) public isEmployee returns (uint256 traceId) {\r\n        CoffeeTrace[] storage _coffeeTrace = coffeeTraceabilities[coffeeId];\r\n        CoffeeTrace memory coffeeTrace = _coffeeTrace[0];\r\n        coffeeTrace.dateStamp = dateStamp;\r\n        coffeeTrace.role = employee[msg.sender].role;\r\n        coffeeTrace.workPlace = employee[msg.sender].workPlace;\r\n        coffeeTrace.trackState = previousTransaction;\r\n        _coffeeTrace.push(coffeeTrace);\r\n\r\n        emit CoffeeTraceabilityUpdate(coffeeId);\r\n        return coffeeId;\r\n    }\r\n\r\n    function getCoffeeTraceability(\r\n        uint256 coffeeId\r\n    ) public view returns (CoffeeTrace[] memory) {\r\n        return coffeeTraceabilities[coffeeId];\r\n    }\r\n}\r\n",
  "sourcePath": "C:\\Workspace\\Web3\\Svelte_truffle\\contracts\\CoffeeTraceability.sol",
  "compiler": {
    "name": "solc",
    "version": "0.8.13+commit.abaa5c0e.Emscripten.clang"
  },
  "schemaVersion": "3.4.16",
  "updatedAt": "2023-11-19T09:25:54.271Z",
  "networkType": "ethereum",
  "devdoc": {
    "kind": "dev",
    "methods": {},
    "version": 1
  },
  "userdoc": {
    "kind": "user",
    "methods": {},
    "version": 1
  }
}