{
  "contractName": "CoffeeTraceability",
  "abi": [
    {
      "inputs": [],
      "stateMutability": "nonpayable",
      "type": "constructor"
    },
    {
      "inputs": [
        {
          "internalType": "uint256",
          "name": "",
          "type": "uint256"
        }
      ],
      "name": "WorkPlaces",
      "outputs": [
        {
          "internalType": "string",
          "name": "",
          "type": "string"
        }
      ],
      "stateMutability": "view",
      "type": "function",
      "constant": true
    },
    {
      "inputs": [
        {
          "internalType": "uint256",
          "name": "",
          "type": "uint256"
        }
      ],
      "name": "coffeeShopRoles",
      "outputs": [
        {
          "internalType": "string",
          "name": "",
          "type": "string"
        }
      ],
      "stateMutability": "view",
      "type": "function",
      "constant": true
    },
    {
      "inputs": [
        {
          "internalType": "address",
          "name": "",
          "type": "address"
        }
      ],
      "name": "employee",
      "outputs": [
        {
          "internalType": "address",
          "name": "id",
          "type": "address"
        },
        {
          "internalType": "string",
          "name": "workPlace",
          "type": "string"
        },
        {
          "internalType": "string",
          "name": "role",
          "type": "string"
        }
      ],
      "stateMutability": "view",
      "type": "function",
      "constant": true
    },
    {
      "inputs": [
        {
          "internalType": "uint256",
          "name": "",
          "type": "uint256"
        }
      ],
      "name": "farmRoles",
      "outputs": [
        {
          "internalType": "string",
          "name": "",
          "type": "string"
        }
      ],
      "stateMutability": "view",
      "type": "function",
      "constant": true
    },
    {
      "inputs": [
        {
          "internalType": "uint256",
          "name": "",
          "type": "uint256"
        }
      ],
      "name": "roastingPlantRoles",
      "outputs": [
        {
          "internalType": "string",
          "name": "",
          "type": "string"
        }
      ],
      "stateMutability": "view",
      "type": "function",
      "constant": true
    },
    {
      "inputs": [
        {
          "internalType": "string",
          "name": "",
          "type": "string"
        },
        {
          "internalType": "uint256",
          "name": "",
          "type": "uint256"
        }
      ],
      "name": "workPlaceRole",
      "outputs": [
        {
          "internalType": "string",
          "name": "",
          "type": "string"
        }
      ],
      "stateMutability": "view",
      "type": "function",
      "constant": true
    },
    {
      "inputs": [
        {
          "internalType": "uint256",
          "name": "_workPlace",
          "type": "uint256"
        },
        {
          "internalType": "uint256",
          "name": "_role",
          "type": "uint256"
        },
        {
          "internalType": "address",
          "name": "employeeAddress",
          "type": "address"
        }
      ],
      "name": "register",
      "outputs": [],
      "stateMutability": "nonpayable",
      "type": "function"
    },
    {
      "inputs": [],
      "name": "getWorkPlace",
      "outputs": [
        {
          "internalType": "string",
          "name": "",
          "type": "string"
        }
      ],
      "stateMutability": "view",
      "type": "function",
      "constant": true
    },
    {
      "inputs": [],
      "name": "getRole",
      "outputs": [
        {
          "internalType": "string",
          "name": "",
          "type": "string"
        }
      ],
      "stateMutability": "view",
      "type": "function",
      "constant": true
    }
  ],
  "bytecode": "0x608060405260405180606001604052806040518060400160405280600481526020017f4661726d0000000000000000000000000000000000000000000000000000000081525081526020016040518060400160405280600e81526020017f526f617374696e6720506c616e7400000000000000000000000000000000000081525081526020016040518060400160405280600b81526020017f436f666665652053686f700000000000000000000000000000000000000000008152508152506003906003620000d09291906200041f565b5060405180606001604052806040518060400160405280600981526020017f486172766573746572000000000000000000000000000000000000000000000081525081526020016040518060400160405280600981526020017f50726f636573736f72000000000000000000000000000000000000000000000081525081526020016040518060400160405280600d81526020017f4661726d205061636b616765720000000000000000000000000000000000000081525081525060069060036200019d9291906200041f565b5060405180608001604052806040518060400160405280601081526020017f57617265686f757365204b65657065720000000000000000000000000000000081525081526020016040518060400160405280600781526020017f526f61737465720000000000000000000000000000000000000000000000000081525081526020016040518060400160405280600581526020017f437572657200000000000000000000000000000000000000000000000000000081525081526020016040518060400160405280601781526020017f526f617374696e6720506c616e74205061636b616765720000000000000000008152508152506009906004620002a592919062000479565b5060405180604001604052806040518060400160405280600c81526020017f53746f7265204b6565706572000000000000000000000000000000000000000081525081526020016040518060400160405280600781526020017f4261726973746100000000000000000000000000000000000000000000000000815250815250600d90600262000337929190620004d3565b503480156200034557600080fd5b50336000806101000a81548173ffffffffffffffffffffffffffffffffffffffff021916908373ffffffffffffffffffffffffffffffffffffffff16021790555060066002604051620003989062000879565b9081526020016040518091039020906003620003b69291906200052d565b5060096002604051620003c990620008e0565b9081526020016040518091039020906004620003e792919062000596565b50600d6002604051620003fa9062000947565b908152602001604051809103902090600262000418929190620005ff565b50620009c2565b826003810192821562000466579160200282015b82811115620004655782518290805190602001906200045492919062000668565b509160200191906001019062000433565b5b509050620004759190620006f9565b5090565b8260048101928215620004c0579160200282015b82811115620004bf578251829080519060200190620004ae92919062000668565b50916020019190600101906200048d565b5b509050620004cf9190620006f9565b5090565b82600281019282156200051a579160200282015b82811115620005195782518290805190602001906200050892919062000668565b5091602001919060010190620004e7565b5b509050620005299190620006f9565b5090565b82805482825590600052602060002090810192821562000583579182015b828111156200058257828290805462000564906200098d565b6200057192919062000721565b50916001019190600101906200054b565b5b509050620005929190620006f9565b5090565b828054828255906000526020600020908101928215620005ec579182015b82811115620005eb578282908054620005cd906200098d565b620005da92919062000721565b5091600101919060010190620005b4565b5b509050620005fb9190620006f9565b5090565b82805482825590600052602060002090810192821562000655579182015b828111156200065457828290805462000636906200098d565b6200064392919062000721565b50916001019190600101906200061d565b5b509050620006649190620006f9565b5090565b82805462000676906200098d565b90600052602060002090601f0160209004810192826200069a5760008555620006e6565b82601f10620006b557805160ff1916838001178555620006e6565b82800160010185558215620006e6579182015b82811115620006e5578251825591602001919060010190620006c8565b5b509050620006f59190620007b9565b5090565b5b808211156200071d5760008181620007139190620007d8565b50600101620006fa565b5090565b8280546200072f906200098d565b90600052602060002090601f016020900481019282620007535760008555620007a6565b82601f10620007665780548555620007a6565b82800160010185558215620007a657600052602060002091601f016020900482015b82811115620007a557825482559160010191906001019062000788565b5b509050620007b59190620007b9565b5090565b5b80821115620007d4576000816000905550600101620007ba565b5090565b508054620007e6906200098d565b6000825580601f10620007fa57506200081b565b601f0160209004906000526020600020908101906200081a9190620007b9565b5b50565b600081905092915050565b7f4661726d00000000000000000000000000000000000000000000000000000000600082015250565b6000620008616004836200081e565b91506200086e8262000829565b600482019050919050565b6000620008868262000852565b9150819050919050565b7f526f617374696e6720506c616e74000000000000000000000000000000000000600082015250565b6000620008c8600e836200081e565b9150620008d58262000890565b600e82019050919050565b6000620008ed82620008b9565b9150819050919050565b7f436f666665652053686f70000000000000000000000000000000000000000000600082015250565b60006200092f600b836200081e565b91506200093c82620008f7565b600b82019050919050565b6000620009548262000920565b9150819050919050565b7f4e487b7100000000000000000000000000000000000000000000000000000000600052602260045260246000fd5b60006002820490506001821680620009a657607f821691505b602082108103620009bc57620009bb6200095e565b5b50919050565b6115ab80620009d26000396000f3fe608060405234801561001057600080fd5b50600436106100935760003560e01c80633578c070116100665780633578c070146101485780633742da2814610178578063a9733aed146101a8578063f1c6480d146101d8578063fde08174146101f457610093565b806309d495fd146100985780630b42dc2d146100ca5780631fa85491146100e85780632dac1b4414610118575b600080fd5b6100b260048036038101906100ad9190610fb8565b610212565b6040516100c19392919061108d565b60405180910390f35b6100d261036c565b6040516100df91906110d2565b60405180910390f35b61010260048036038101906100fd919061125f565b61059e565b60405161010f91906110d2565b60405180910390f35b610132600480360381019061012d91906112bb565b61066d565b60405161013f91906110d2565b60405180910390f35b610162600480360381019061015d91906112bb565b610710565b60405161016f91906110d2565b60405180910390f35b610192600480360381019061018d91906112bb565b6107b3565b60405161019f91906110d2565b60405180910390f35b6101c260048036038101906101bd91906112bb565b610856565b6040516101cf91906110d2565b60405180910390f35b6101f260048036038101906101ed91906112e8565b6108f9565b005b6101fc610c3a565b60405161020991906110d2565b60405180910390f35b60016020528060005260406000206000915090508060000160009054906101000a900473ffffffffffffffffffffffffffffffffffffffff169080600101805461025b9061136a565b80601f01602080910402602001604051908101604052809291908181526020018280546102879061136a565b80156102d45780601f106102a9576101008083540402835291602001916102d4565b820191906000526020600020905b8154815290600101906020018083116102b757829003601f168201915b5050505050908060020180546102e99061136a565b80601f01602080910402602001604051908101604052809291908181526020018280546103159061136a565b80156103625780601f1061033757610100808354040283529160200191610362565b820191906000526020600020905b81548152906001019060200180831161034557829003601f168201915b5050505050905083565b606060006040518060400160405280600c81526020017f556e617574686f72697a6564000000000000000000000000000000000000000081525090503373ffffffffffffffffffffffffffffffffffffffff1660008054906101000a900473ffffffffffffffffffffffffffffffffffffffff1673ffffffffffffffffffffffffffffffffffffffff1603610434576040518060400160405280600781526020017f4d616e616765720000000000000000000000000000000000000000000000000081525090505b3373ffffffffffffffffffffffffffffffffffffffff16600160003373ffffffffffffffffffffffffffffffffffffffff1673ffffffffffffffffffffffffffffffffffffffff16815260200190815260200160002060000160009054906101000a900473ffffffffffffffffffffffffffffffffffffffff1673ffffffffffffffffffffffffffffffffffffffff160361059757600160003373ffffffffffffffffffffffffffffffffffffffff1673ffffffffffffffffffffffffffffffffffffffff16815260200190815260200160002060010180546105169061136a565b80601f01602080910402602001604051908101604052809291908181526020018280546105429061136a565b801561058f5780601f106105645761010080835404028352916020019161058f565b820191906000526020600020905b81548152906001019060200180831161057257829003601f168201915b505050505090505b8091505090565b60028280516020810182018051848252602083016020850120818352809550505050505081815481106105d057600080fd5b906000526020600020016000915091505080546105ec9061136a565b80601f01602080910402602001604051908101604052809291908181526020018280546106189061136a565b80156106655780601f1061063a57610100808354040283529160200191610665565b820191906000526020600020905b81548152906001019060200180831161064857829003601f168201915b505050505081565b6003816003811061067d57600080fd5b01600091509050805461068f9061136a565b80601f01602080910402602001604051908101604052809291908181526020018280546106bb9061136a565b80156107085780601f106106dd57610100808354040283529160200191610708565b820191906000526020600020905b8154815290600101906020018083116106eb57829003601f168201915b505050505081565b6006816003811061072057600080fd5b0160009150905080546107329061136a565b80601f016020809104026020016040519081016040528092919081815260200182805461075e9061136a565b80156107ab5780601f10610780576101008083540402835291602001916107ab565b820191906000526020600020905b81548152906001019060200180831161078e57829003601f168201915b505050505081565b600981600481106107c357600080fd5b0160009150905080546107d59061136a565b80601f01602080910402602001604051908101604052809291908181526020018280546108019061136a565b801561084e5780601f106108235761010080835404028352916020019161084e565b820191906000526020600020905b81548152906001019060200180831161083157829003601f168201915b505050505081565b600d816002811061086657600080fd5b0160009150905080546108789061136a565b80601f01602080910402602001604051908101604052809291908181526020018280546108a49061136a565b80156108f15780601f106108c6576101008083540402835291602001916108f1565b820191906000526020600020905b8154815290600101906020018083116108d457829003601f168201915b505050505081565b60008054906101000a900473ffffffffffffffffffffffffffffffffffffffff1673ffffffffffffffffffffffffffffffffffffffff163373ffffffffffffffffffffffffffffffffffffffff1614610987576040517f08c379a000000000000000000000000000000000000000000000000000000000815260040161097e9061140d565b60405180910390fd5b61098f610e6c565b81816000019073ffffffffffffffffffffffffffffffffffffffff16908173ffffffffffffffffffffffffffffffffffffffff168152505060036001856109d6919061145c565b600381106109e7576109e6611490565b5b0180546109f39061136a565b80601f0160208091040260200160405190810160405280929190818152602001828054610a1f9061136a565b8015610a6c5780601f10610a4157610100808354040283529160200191610a6c565b820191906000526020600020905b815481529060010190602001808311610a4f57829003601f168201915b5050505050816020018190525060026003600186610a8a919061145c565b60038110610a9b57610a9a611490565b5b01604051610aa9919061155e565b9081526020016040518091039020600184610ac4919061145c565b81548110610ad557610ad4611490565b5b906000526020600020018054610aea9061136a565b80601f0160208091040260200160405190810160405280929190818152602001828054610b169061136a565b8015610b635780601f10610b3857610100808354040283529160200191610b63565b820191906000526020600020905b815481529060010190602001808311610b4657829003601f168201915b5050505050816040018190525080600160008473ffffffffffffffffffffffffffffffffffffffff1673ffffffffffffffffffffffffffffffffffffffff16815260200190815260200160002060008201518160000160006101000a81548173ffffffffffffffffffffffffffffffffffffffff021916908373ffffffffffffffffffffffffffffffffffffffff1602179055506020820151816001019080519060200190610c13929190610ea3565b506040820151816002019080519060200190610c30929190610ea3565b5090505050505050565b606060006040518060400160405280600c81526020017f556e617574686f72697a6564000000000000000000000000000000000000000081525090503373ffffffffffffffffffffffffffffffffffffffff1660008054906101000a900473ffffffffffffffffffffffffffffffffffffffff1673ffffffffffffffffffffffffffffffffffffffff1603610d02576040518060400160405280600781526020017f4d616e616765720000000000000000000000000000000000000000000000000081525090505b3373ffffffffffffffffffffffffffffffffffffffff16600160003373ffffffffffffffffffffffffffffffffffffffff1673ffffffffffffffffffffffffffffffffffffffff16815260200190815260200160002060000160009054906101000a900473ffffffffffffffffffffffffffffffffffffffff1673ffffffffffffffffffffffffffffffffffffffff1603610e6557600160003373ffffffffffffffffffffffffffffffffffffffff1673ffffffffffffffffffffffffffffffffffffffff1681526020019081526020016000206002018054610de49061136a565b80601f0160208091040260200160405190810160405280929190818152602001828054610e109061136a565b8015610e5d5780601f10610e3257610100808354040283529160200191610e5d565b820191906000526020600020905b815481529060010190602001808311610e4057829003601f168201915b505050505090505b8091505090565b6040518060600160405280600073ffffffffffffffffffffffffffffffffffffffff16815260200160608152602001606081525090565b828054610eaf9061136a565b90600052602060002090601f016020900481019282610ed15760008555610f18565b82601f10610eea57805160ff1916838001178555610f18565b82800160010185558215610f18579182015b82811115610f17578251825591602001919060010190610efc565b5b509050610f259190610f29565b5090565b5b80821115610f42576000816000905550600101610f2a565b5090565b6000604051905090565b600080fd5b600080fd5b600073ffffffffffffffffffffffffffffffffffffffff82169050919050565b6000610f8582610f5a565b9050919050565b610f9581610f7a565b8114610fa057600080fd5b50565b600081359050610fb281610f8c565b92915050565b600060208284031215610fce57610fcd610f50565b5b6000610fdc84828501610fa3565b91505092915050565b610fee81610f7a565b82525050565b600081519050919050565b600082825260208201905092915050565b60005b8381101561102e578082015181840152602081019050611013565b8381111561103d576000848401525b50505050565b6000601f19601f8301169050919050565b600061105f82610ff4565b6110698185610fff565b9350611079818560208601611010565b61108281611043565b840191505092915050565b60006060820190506110a26000830186610fe5565b81810360208301526110b48185611054565b905081810360408301526110c88184611054565b9050949350505050565b600060208201905081810360008301526110ec8184611054565b905092915050565b600080fd5b600080fd5b7f4e487b7100000000000000000000000000000000000000000000000000000000600052604160045260246000fd5b61113682611043565b810181811067ffffffffffffffff82111715611155576111546110fe565b5b80604052505050565b6000611168610f46565b9050611174828261112d565b919050565b600067ffffffffffffffff821115611194576111936110fe565b5b61119d82611043565b9050602081019050919050565b82818337600083830152505050565b60006111cc6111c784611179565b61115e565b9050828152602081018484840111156111e8576111e76110f9565b5b6111f38482856111aa565b509392505050565b600082601f8301126112105761120f6110f4565b5b81356112208482602086016111b9565b91505092915050565b6000819050919050565b61123c81611229565b811461124757600080fd5b50565b60008135905061125981611233565b92915050565b6000806040838503121561127657611275610f50565b5b600083013567ffffffffffffffff81111561129457611293610f55565b5b6112a0858286016111fb565b92505060206112b18582860161124a565b9150509250929050565b6000602082840312156112d1576112d0610f50565b5b60006112df8482850161124a565b91505092915050565b60008060006060848603121561130157611300610f50565b5b600061130f8682870161124a565b93505060206113208682870161124a565b925050604061133186828701610fa3565b9150509250925092565b7f4e487b7100000000000000000000000000000000000000000000000000000000600052602260045260246000fd5b6000600282049050600182168061138257607f821691505b6020821081036113955761139461133b565b5b50919050565b7f556e617574686f72697a65642c204f6e6c79204d616e616765722063616e206460008201527f6f21000000000000000000000000000000000000000000000000000000000000602082015250565b60006113f7602283610fff565b91506114028261139b565b604082019050919050565b60006020820190508181036000830152611426816113ea565b9050919050565b7f4e487b7100000000000000000000000000000000000000000000000000000000600052601160045260246000fd5b600061146782611229565b915061147283611229565b9250828210156114855761148461142d565b5b828203905092915050565b7f4e487b7100000000000000000000000000000000000000000000000000000000600052603260045260246000fd5b600081905092915050565b60008190508160005260206000209050919050565b600081546114ec8161136a565b6114f681866114bf565b94506001821660008114611511576001811461152257611555565b60ff19831686528186019350611555565b61152b856114ca565b60005b8381101561154d5781548189015260018201915060208101905061152e565b838801955050505b50505092915050565b600061156a82846114df565b91508190509291505056fea2646970667358221220b5064b83260da67f079813b8a1b284299600828ae6654a0137c3a0d7b255b41364736f6c634300080d0033",
  "immutableReferences": {},
  "source": "// SPDX-License-Identifier: MIT\r\npragma solidity ^0.8.0;\r\n\r\nstruct Position {\r\n    address id;\r\n    string workPlace;\r\n    string role;\r\n}\r\n\r\ncontract CoffeeTraceability {\r\n    address private _manager;\r\n    mapping(address => Position) public employee;\r\n    mapping(string => string[]) public workPlaceRole;\r\n    string[3] public WorkPlaces = [\"Farm\", \"Roasting Plant\", \"Coffee Shop\"];\r\n    string[3] public farmRoles = [\"Harvester\", \"Processor\", \"Farm Packager\"];\r\n    string[4] public roastingPlantRoles = [\r\n        \"Warehouse Keeper\",\r\n        \"Roaster\",\r\n        \"Curer\",\r\n        \"Roasting Plant Packager\"\r\n    ];\r\n    string[2] public coffeeShopRoles = [\"Store Keeper\", \"Barista\"];\r\n\r\n    constructor() {\r\n        _manager = msg.sender;\r\n        workPlaceRole[\"Farm\"] = farmRoles;\r\n        workPlaceRole[\"Roasting Plant\"] = roastingPlantRoles;\r\n        workPlaceRole[\"Coffee Shop\"] = coffeeShopRoles;\r\n    }\r\n\r\n    modifier isManager() {\r\n        require(msg.sender == _manager, \"Unauthorized, Only Manager can do!\");\r\n        _;\r\n    }\r\n\r\n    modifier isEmployee() {\r\n        require(\r\n            msg.sender == employee[msg.sender].id,\r\n            \"Unauthorized, Only Employee can do!\"\r\n        );\r\n        _;\r\n    }\r\n\r\n    function register(\r\n        uint256 _workPlace,\r\n        uint256 _role,\r\n        address employeeAddress\r\n    ) public isManager {\r\n        Position memory _position;\r\n        _position.id = employeeAddress;\r\n        _position.workPlace = WorkPlaces[_workPlace - 1];\r\n        _position.role = workPlaceRole[WorkPlaces[_workPlace - 1]][_role - 1];\r\n        employee[employeeAddress] = _position;\r\n    }\r\n\r\n    function getWorkPlace() public view returns (string memory) {\r\n        string memory workPlace = \"Unauthorized\";\r\n        if (_manager == msg.sender) workPlace = \"Manager\";\r\n        if (employee[msg.sender].id == msg.sender)\r\n            workPlace = employee[msg.sender].workPlace;\r\n        return workPlace;\r\n    }\r\n\r\n    function getRole() public view returns (string memory) {\r\n        string memory role = \"Unauthorized\";\r\n        if (_manager == msg.sender) role = \"Manager\";\r\n        if (employee[msg.sender].id == msg.sender)\r\n            role = employee[msg.sender].role;\r\n        return role;\r\n    }\r\n}\r\n",
  "sourcePath": "C:\\Workspace\\Web3\\Svelte_truffle\\contracts\\CoffeeTraceability.sol",
  "compiler": {
    "name": "solc",
    "version": "0.8.13+commit.abaa5c0e.Emscripten.clang"
  },
  "schemaVersion": "3.4.16",
  "updatedAt": "2023-11-12T12:45:10.376Z",
  "networkType": "ethereum",
  "devdoc": {
    "kind": "dev",
    "methods": {},
    "version": 1
  },
  "userdoc": {
    "kind": "user",
    "methods": {},
    "version": 1
  }
}