{
  "contractName": "SimpleStorage",
  "abi": [
    {
      "inputs": [
        {
          "internalType": "uint256",
          "name": "x",
          "type": "uint256"
        }
      ],
      "name": "setStoredData",
      "outputs": [],
      "stateMutability": "nonpayable",
      "type": "function"
    },
    {
      "inputs": [],
      "name": "getStoredData",
      "outputs": [
        {
          "internalType": "uint256",
          "name": "",
          "type": "uint256"
        }
      ],
      "stateMutability": "view",
      "type": "function"
    },
    {
      "inputs": [],
      "name": "getYourBalance",
      "outputs": [
        {
          "internalType": "uint256",
          "name": "",
          "type": "uint256"
        }
      ],
      "stateMutability": "view",
      "type": "function"
    }
  ],
  "bytecode": "0x608060405234801561001057600080fd5b50610198806100206000396000f3fe608060405234801561001057600080fd5b50600436106100415760003560e01c80632f9530f714610046578063a331e16a14610062578063b69ca9a114610080575b600080fd5b610060600480360381019061005b919061010b565b61009e565b005b61006a6100a8565b6040516100779190610147565b60405180910390f35b6100886100c7565b6040516100959190610147565b60405180910390f35b8060008190555050565b60003373ffffffffffffffffffffffffffffffffffffffff1631905090565b60008054905090565b600080fd5b6000819050919050565b6100e8816100d5565b81146100f357600080fd5b50565b600081359050610105816100df565b92915050565b600060208284031215610121576101206100d0565b5b600061012f848285016100f6565b91505092915050565b610141816100d5565b82525050565b600060208201905061015c6000830184610138565b9291505056fea2646970667358221220da3b8dbb2d64b1118bd41d800775c4befd63c3e95af0ba9c76f01d8d85593d1764736f6c634300080d0033",
  "immutableReferences": {},
  "source": "// SPDX-License-Identifier: MIT\npragma solidity ^0.8.13;\n\ncontract SimpleStorage {\n    uint storedData;\n\n    function setStoredData(uint x) public {\n        storedData = x;\n    }\n\n    function getStoredData() public view returns (uint) {\n        return storedData;\n    }\n\n    function getYourBalance() public view returns (uint) {\n        return msg.sender.balance;\n    }\n}\n",
  "sourcePath": "C:\\Workspace\\Web3\\Svelte_truffle\\contracts\\SimpleStorage.sol",
  "compiler": {
    "name": "solc",
    "version": "0.8.13+commit.abaa5c0e.Emscripten.clang"
  },
  "schemaVersion": "3.4.16",
  "updatedAt": "2023-11-12T12:45:07.815Z",
  "devdoc": {
    "kind": "dev",
    "methods": {},
    "version": 1
  },
  "userdoc": {
    "kind": "user",
    "methods": {},
    "version": 1
  }
}